S0250000766964656F5F696E5F64696769745F636C617373696669636174696F6E2E7372656317
S113000018F09FE518F09FE518F09FE518F09FE5BC
S113001018F09FE518F09FE518F09FE518F09FE5AC
S113002040000000481700004C1700005017000063
S11300305417000044170000581700005C17000014
S1130040260000EA8C609FE5000056E380402DE91D
S1130050016046E21E00000A7C509FE50000A0E318
S11300600010A0E30C2015E510E015E5084015E5A7
S113007002005EE1042082000900000A000054E34B
S11300800700000A0270A0E102C0A0E10C00BEE873
S11300900C00ACE80C3067E0030054E10C20A0E154
S11300A0F9FFFF1A04E015E500005EE30230A01139
S11300B00300000A0300A3E803C062E00C005EE151
S11300C0FBFFFF1A016046E2010076E3145085E26B
S11300D0E3FFFF1A810500EB01000000E4180000B3
S11300E03C108FE21600A0E3563412EF000050E3F8
S11300F0080000BA28209FE51CD09FE5080092E57F
S1130100000050E300D0A01110109FE5040092E518
S1130110000050E300008115C9FFFFEAF8FFFF3F2C
S113012040B6000068B6000000D01FE5C4FFFFEA37
S1130130F8FFFF3F08402DE92C009FE52C309FE598
S1130140033060E0060053E30100008A0840BDE884
S11301501EFF2FE118309FE5000053E3FAFFFF0A6A
S11301600FE0A0E113FF2FE1F7FFFFEA48B600001C
S11301704BB600000000000008402DE934009FE564
S113018034309FE5033060E04331A0E1A33F83E0D6
S1130190C310B0E10100001A0840BDE81EFF2FE1C2
S11301A018209FE5000052E3FAFFFF0A0FE0A0E1E8
S11301B012FF2FE1F7FFFFEA48B6000048B600003F
S11301C00000000010402DE92C409FE50030D4E5EC
S11301D0000053E30600001AD5FFFFEB1C309FE537
S11301E0000053E318009F1500F020130130A0E332
S11301F00030C4E51040BDE81EFF2FE148B6000002
S113020000000000E817000008402DE934309FE5A5
S1130210000053E330009F1530109F1500F02013A9
S11302202C009FE5003090E5000053E30300000A32
S113023020309FE5000053E30FE0A01113FF2F11BE
S11302400840BDE8CBFFFFEA00000000E81700000B
S11302504CB60000E81800000000000004402DE542
S1130260004090E5010051E30A0000DA00C0A0E17B
S11302700130A0E30000A0E30420BCE5040052E147
S11302800300A0C10240A0C1013083E2010053E198
S1130290F8FFFF1A000000EA0000A0E31000BDE828
S11302A01EFF2FE1F04F2DE95CD04DE200B0A0E13C
S11302B008E08DE2ECC701E300C040E30F00BCE8B6
S11302C00F00AEE80F00BCE80F00AEE803009CE8A6
S11302D003008EE80020A0E304208DE50290A0E155
S11302E01A0000EA0400D7E7A00200EB0410B5E509
S11302F0D70200EB0010A0E10600A0E12C0200EB05
S11303000060A0E1014084E21C0054E3F4FFFF1A02
S113031070A08AE21C8088E2310E58E30300000AD0
S113032008708BE004504AE20940A0E1ECFFFFEAC8
S1130330850300EB30308DE204209DE5020083E765
S1130340042082E204208DE5280052E30500000A1F
S113035008208DE204309DE502A093E70980A0E126
S11303600060A0E3EDFFFFEA30008DE20A10A0E395
S1130370B9FFFFEB5CD08DE2F08FBDE8F0072DE90B
S11303800CD04DE21C8081E2080051E10D0000BA5E
S1130390180000EA02C0D4E700005CE3B660CD11A7
S11303A0B650CD01B6C0DDE1B2C0C1E01C2082E28E
S11303B0310E52E3F6FFFF1A017087E2080057E19D
S11303C00500001A0B0000EA0170A0E11CA080E205
S11303D00050A0E3029061E00060E0E30A0050E115
S11303E0F4FFFFAA871480E0811083E00520A0E1D8
S11303F0074089E0E6FFFFEA0CD08DE2F007BDE894
S11304001EFF2FE104402DE56AC0A0E30040A0E3F5
S1130410080000EAB210D2E0B31080E1383083E281
S1130420620E53E3FAFFFF1A01C08CE2020080E27D
S113043086005CE30400000A0C25A0E1492F82E257
S1130440322382E20430A0E1F1FFFFEA1000BDE8AC
S11304501EFF2FE1F0002DE91C3081E2030051E181
S1130460150000AA0240A0E10050A0E31C6080E255
S11304700570A0E1080000EAB3C094E1B2C0C2E094
S1130480383083E2620E53E3FAFFFF1A015085E22B
S1130490024084E21C0055E30700000A013085E0B5
S11304A0060050E1F8FFFFAA832480E08220A0E147
S11304B0032182E20730A0E1EEFFFFEAF000BDE88D
S11304C01EFF2FE104402DE524D04DE20030A0E3CF
S11304D004308DE51C308DE51C309DE51B0053E395
S11304E0360000CA00C0A0E3561505E3551545E3E0
S11304F018C08DE518309DE51B0053E3290000CAA0
S113050018309DE51C209DE5833163E0833180E054
S11305108220A0E1F23093E1D335E4E714308DE595
S113052018309DE51C209DE5833163E0833180E034
S11305308220A0E1F23093E1D332E5E710308DE57B
S113054018309DE51C209DE5833163E0833180E014
S11305508220A0E1B23093E11F3003E20C308DE53C
S113056014409DE510309DE50C209DE5033084E0AA
S1130570023083E09143C2E0C33F42E008308DE59E
S113058004209DE508309DE5033082E004308DE5CC
S113059018309DE5013083E218308DE518309DE573
S11305A01B0053E3D5FFFFDA1C309DE5013083E2E5
S11305B01C308DE51C309DE51B0053E3CBFFFFDAB7
S11305C004309DE59D2208E3972345E39213C2E09E
S11305D0C33FA0E1423463E000308DE500009DE5B7
S11305E024D08DE21000BDE81EFF2FE1F0052DE9B7
S11305F018D04DE20030A0E314308DE514309DE5B1
S11306001B0053E33C0000CA0070A0E30740A0E1D4
S1130610565505E3555545E30060E0E310408DE58C
S113062010309DE51B0053E32C0000CA073082E024
S113063010C09DE514809DE58CC16CE08CC180E008
S11306408880A0E1F8C09CE1DCC5E4E70CC08DE53E
S113065010C09DE514809DE58CC16CE08CC180E0E8
S11306608880A0E1F8C09CE1DCC2E5E708C08DE524
S113067010C09DE514809DE58CC16CE08CC180E0C8
S11306808880A0E1B8C09CE11FC00CE204C08DE5E5
S11306900CA09DE508C09DE504809DE50CC08AE0A2
S11306A008C08CE095ACC8E0CCCF48E000C08DE534
S11306B000C09DE501005CE104C0A0D106C0A0C15A
S11306C000C0C3E510C09DE501C08CE210C08DE5FB
S11306D010C09DE51C3083E21B005CE3D3FFFFDA0E
S11306E0017087E214309DE5013083E214308DE51A
S11306F014309DE51B0053E3C7FFFFDA18D08DE2E9
S1130700F005BDE81EFF2FE11DC080E20C0050E1A2
S11307101EFF2FC1803481E08330A0E1323383E2B5
S1130720B020C3E1010080E20C0050E1F8FFFFDAE1
S11307301EFF2FE11DC081E20C0051E11EFF2FC1FD
S1130740803481E08330A0E18E3343E2B220E3E1E0
S1130750011081E20C0051E1FBFFFFDA1EFF2FE1E3
S1130760811380E00030D2E5000053E31EFF2F0127
S1130770C91481E20130C1E40130F2E5000053E321
S1130780FBFFFF1A1EFF2FE130002DE90040A0E31C
S11307900450A0E1080000EAB3209CE1B32081E109
S11307A0023083E20A0D53E3FAFFFF1A014084E2A8
S11307B00A0D80E2F00054E30400000A00C0A0E146
S11307C00415A0E10530A0E1031181E2F1FFFFEA85
S11307D03000BDE81EFF2FE1F0452DE926DA4DE299
S11307E071DF4DE2EC4701E3004040E3260A8DE26D
S11307F0590F80E2281084E24420A0E37E0200EB3B
S113080026CA8DE213CE8CE26CE084E20F00BEE8CF
S11308100F00ACE80F00BEE80F00ACE80F00BEE824
S11308200F00ACE800309EE500308CE51400A0E336
S11308300110A0E3262A8DE2132E82E2C7FFFFEB0C
S11308400030A0E3261A8DE2BC3181E5BC3191E58C
S1130850EF0053E31F0000CA00E0A0E33F0100E300
S113086070170AE3FD1F4FE31FC0A0E3262A8DE2A1
S1130870B8E182E5B83192E5000053E10E0000CA08
S1130880264A8DE2BC3194E5B82194E5033183E036
S1130890033382E0262A8DE2072D82E2833082E050
S11308A0B1C083E1B83194E5013083E2B83184E525
S11308B0B83194E5000053E1F0FFFFDA264A8DE2F7
S11308C0BC3194E5013083E2BC3184E5BC3194E56C
S11308D0EF0053E3E4FFFFDA0030A0E3261A8DE2D1
S11308E0BC3181E5B83181E5930E8DE2A5FFFFEBC4
S11308F0FF3F03E3203F4FE30420A0E3932F03E5EE
S11309003223A0E3DB2F03E50120A0E3DF2F03E57F
S1130910263A8DE2A82183E50040A0E3204F4FE36F
S1130920F05801E3005040E331AE85E2E87803E398
S1130930007040E3D98E47E2088048E25C3094E5D9
S1130940080013E31900000AFF3F03E3203F4FE3CD
S1130950932F13E5042022E2932F03E542670EE36D
S1130960FF6F4FE36900A0E39110A0E30620A0E12C
S113097064FFFFEB6900A0E39210A0E30620A0E16E
S11309806BFFFFEB8700A0E39210A0E30620A0E139
S113099067FFFFEB6A00A0E3AE10A0E30620A0E12E
S11309A058FFFFEB0830A0E35C3084E5E2FFFFEA88
S11309B05C3094E5040013E35700000A261A8DE224
S11309C0A83191E5013023E2A83181E5A83191E510
S11309D0000053E3FF3F03E3203F4FE33223A01320
S11309E00321A003DB2F03E5FF3F03E3203F4FE395
S11309F00120A0E3DF2F03E5310E8DE280FEFFEB43
S1130A007500A0E38C10A0E3312E8DE290FEFFEB85
S1130A10310E8DE2AAFEFFEB262A8DE2B40182E5B7
S1130A20B43192E5003084E50000A0E30A10A0E3AD
S1130A300520A0E13233A0E34FFEFFEB0000A0E36A
S1130A400A10A0E30520A0E10331A0E34AFEFFEB76
S1130A501E00A0E30A10A0E30A20A0E10331A0E3F2
S1130A6045FEFFEB3C00A0E30A10A0E3622E85E202
S1130A700331A0E340FEFFEB5A00A0E30A10A0E319
S1130A80932E85E20331A0E33BFEFFEB7800A0E365
S1130A900A10A0E3312D85E20331A0E336FEFFEB1B
S1130AA09600A0E30A10A0E3F52E85E20331A0E34B
S1130AB031FEFFEBB400A0E30A10A0E30820A0E19C
S1130AC00331A0E32CFEFFEB2A2D47E2D200A0E382
S1130AD00A10A0E3082042E20331A0E326FEFFEB64
S1130AE0772E47E2F000A0E30A10A0E3082042E2D8
S1130AF00331A0E320FEFFEB462E47E20E0100E3A4
S1130B000A10A0E3082042E20331A0E31AFEFFEB3F
S1130B100430A0E35C3084E587FFFFEA5C3094E5B1
S1130B20020013E384FFFF0A403094E57330EFE6DC
S1130B30261A8DE2B03181E5B01191E5310E8DE2D6
S1130B400D20A0E1A8FEFFEB9600A0E38C10A0E32B
S1130B500D20A0E10331A0E307FEFFEB0D00A0E1AF
S1130B60CFFDFFEB263A8DE2AC0183E5A43193E59A
S1130B70261A8DE2AC2191E50318A0E1031C81E063
S1130B80033481E0261A8DE2071D81E2022181E00F
S1130B905C2012E5023083E0203084E50230A0E3DB
S1130BA05C3084E564FFFFEA020120E2000000EA11
S1130BB0021121E28020B0E18130B0110300321132
S1130BC042CCF01143CCF0114700000A222CA0E1E2
S1130BD0233C72E0032082C0011020C0000021C029
S1130BE0011020C0003063B2190053E31EFF2F81AF
S1130BF0020110E3020580E3FF04C0E30000601279
S1130C00020111E3021581E3FF14C1E30010611234
S1130C10030032E12E00000A012042E2510390E079
S1130C20203063E21113A0E1023100E20100005A16
S1130C30001071E20000E0E2020550E30B00003A0C
S1130C40010450E30400003AA000B0E16110A0E107
S1130C50012082E2FE0052E33800002A020151E33F
S1130C60820BA0E00100C003030080E11EFF2FE11E
S1130C708110B0E10000A0E0020510E3012042E28F
S1130C80F5FFFF1A20C6B0E10006A0010C204202C5
S1130C90FF0810E30004A001082042020F0610E33D
S1130CA00002A00104204202030510E30001A00198
S1130CB002204202020550E38000A0310020D2E26B
S1130CC0820B80A0002062B2030080A1300283B1B5
S1130CD01EFF2FE1000032E3021521E2020520028B
S1130CE00120820201304312CAFFFFEA8130A0E1F1
S1130CF042CCF0E143CCF0111300000A030032E1CE
S1130D000200000A000032E30100A0011EFF2FE1EF
S1130D10010030E10000A0131EFF2F11FF0412E3B5
S1130D200200001A8000B0E1020180231EFF2FE1BF
S1130D30022492E2020580321EFF2F31023100E2CA
S1130D407F0483E3020580E31EFF2FE1422CF0E1E0
S1130D500100A011433CF0010010A0118024B0E177
S1130D608134B00101003001010580131EFF2FE121
S1130D700030A0E3010000EA023110E2000060420A
S1130D8000C0B0E11EFF2F014B3483E30010A0E14B
S1130D900000A0E30F0000EA012090E11EFF2F01F4
S1130DA00030A0E3050000EA012090E11EFF2F01BE
S1130DB0023111E20100005A000070E20010E1E289
S1130DC001C0B0E100C0A0010010A0010000A00318
S1130DD05B3483E301324302023543E21720A0E38C
S1130DE001085CE32CC8A02110204222010C5CE322
S1130DF02CC4A0210820422210005CE32CC2A021B4
S1130E000420422204005CE302204222AC2042304F
S1130E10AC2152E0823B43E0060000BA113283E089
S1130E2010C2A0E1202062E202015CE33002A3E0F0
S1130E300100C0031EFF2FE1202082E211C2A0E1C5
S1130E40202062E28C0090E13102A3E0AC0FC001EB
S1130E501EFF2FE1FFC0A0E3A02B1CE0A13B1C1050
S1130E600C0032110C0033113E00000A032082E012
S1130E7001C020E08004B0E18114B0111000000A28
S1130E800233A0E3A00283E1A11283E1903181E067
S1130E9002010CE2020551E38110A031A31F81314C
S1130EA08330A031010080E17F20C2E2FD0052E3E3
S1130EB00F00008A020153E3820BA0E00100C0038B
S1130EC01EFF2FE1000030E302C10CE28114A001F7
S1130ED0A0048CE1A10480E17F2052E2FF3072C2C1
S1130EE0820B80C11EFF2FC1020580E30030A0E306
S1130EF0012052E2350000CA190072E3020100D257
S1130F001EFF2FD1002062E28010B0E13112A0E177
S1130F10202062E210C2A0E16100B0E10000A0E282
S1130F208C3093E1AC0FC0011EFF2FE1000032E3CF
S1130F3002C100E28000A001020510030120420268
S1130F40FBFFFF0A0C0080E1000033E302C101E271
S1130F508110A0010205110301304302FBFFFF0AC7
S1130F600C1081E1C0FFFFEAA13B0CE00C0032E170
S1130F700C0033110500000A02C1D0E302C1D113F1
S1130F80E9FFFF1A010020E0020100E21EFF2FE149
S1130F90000030E3020130130100A001000031130E
S1130FA0020131130D00000A0C0032E10100001AA5
S1130FB08024B0E10900001A0C0033E10200001A99
S1130FC08134B0E10100A0110400001A010020E006
S1130FD0020100E27F0480E3020580E31EFF2FE1AB
S1130FE07F0480E3030580E31EFF2FE1FFC0A0E33D
S1130FF0A02B1CE0A13B1C100C0032110C0033117F
S11310003A00000A032042E001C020E08114B0E16C
S11310108004A0E11C00000A0132A0E3211283E154
S1131020203283E102010CE2010053E18330A0315C
S11310307D20A2E202C5A0E3010053E10130432078
S11310400C008021A10053E1A1304320AC00802199
S1131050210153E1213143202C018021A10153E1DD
S1131060A1314320AC0180210332B0E12CC2B01184
S1131070F0FFFF1AFD0052E39DFFFF8A010053E1D8
S1131080820BA0E00100C0031EFF2FE102C10CE2AD
S1131090A0048CE17F2092E2FF3072C2820B80C1F7
S11310A01EFF2FC1020580E30030A0E3012052E2BD
S11310B08FFFFFEA000032E302C100E28000A001DA
S11310C00205100301204202FBFFFF0A0C0080E12D
S11310D0000033E302C101E28110A0010205110303
S11310E001304302FBFFFF0A0C1081E1C4FFFFEA59
S11310F0A13B0CE00C0032E10500001A8024B0E1B1
S1131100B6FFFF1A0C0033E1AFFFFF1A0100A0E1A4
S1131110B2FFFFEA0C0033E10300001A8134B0E1AE
S113112097FFFF0A0100A0E1ACFFFFEA02C1D0E390
S113113002C1D113DEFFFF1A0221D0E3A2FFFF1A7E
S11311400231D1E38EFFFF1AA4FFFFEA8020A0E161
S11311507F0452E30800003A9E30A0E3222C53E0BF
S11311600700009A0034A0E1023183E3020110E396
S11311703302A0E1000060121EFF2FE10000A0E393
S11311801EFF2FE1610072E30100001A8024B0E128
S11311900200001A020110E20201E0031EFF2FE127
S11311A00000A0E31EFF2FE10010A0E10000A0E377
S11311B008402DE90020A0E10030A0E1910000EBFF
S11311C00840BDE81EFF2FE108402DE90010A0E310
S11311D00040A0E1C80000EB18309FE5000093E553
S11311E03C3090E5000053E30FE0A01113FF2F11F2
S11311F00400A0E14C0100EB8C180000030052E352
S1131200F0012DE90900008A000052E30500000AFC
S11312100030A0E303C0D1E703C0C0E7013083E29C
S1131220020053E1FAFFFF1AF001BDE81EFF2FE1AF
S1131230030010E3022080E00B00000A01C080E2FA
S1131240014081E203300CE2015054E5000053E315
S11312500410A0E10C30A0E101504CE5014084E20F
S113126001C08CE2F6FFFF1A000000EA0030A0E1A2
S113127003C011E24F00001A02C063E03F005CE3C8
S1131280240000DA00C091E500C083E504C091E5C4
S113129004C083E508C091E508C083E50CC091E56E
S11312A00CC083E510C091E510C083E514C091E53E
S11312B014C083E518C091E518C083E51CC091E50E
S11312C01CC083E520C091E520C083E524C091E5DE
S11312D024C083E528C091E528C083E52CC091E5AE
S11312E02CC083E530C091E530C083E534C091E57E
S11312F034C083E538C091E538C083E53CC091E54E
S1131300403083E204C003E502C063E03F005CE3D5
S1131310401081E2DAFFFFCA0F005CE30C0000DA40
S113132000C091E500C083E504C091E504C083E5F5
S113133008C091E508C083E50CC091E5103083E254
S113134004C003E502C063E00F005CE3101081E217
S1131350F2FFFFCA03005CE30A0000DA04C083E280
S1131360044081E202306CE0045014E5030053E3CE
S11313700410A0E10C30A0E104500CE5044084E228
S113138004C08CE2F6FFFFCA030052E101308382FD
S11313900110818201208282A2FFFF9A01C051E5DF
S11313A0013083E2020053E102C043E5011081E20F
S11313B0F9FFFF1A9BFFFFEA025063E001406CE073
S11313C0030055E3005094E5EEFFFFDA04606CE29D
S11313D08C71A0E18661A0E104C083E23587A0E1BD
S11313E00450B4E5158688E102306CE0030053E351
S11313F004800CE50C30A0E1041081E204C08CE20E
S1131400F5FFFFCADFFFFFEAE4C09FE5F0412DE9E5
S113141000409CE548C194E500005CE353CF84029E
S113142004509CE548C184051F0055E310D04DE2EB
S11314300060A0E1150000DAB8009FE5000050E369
S11314400100001A0000E0E3180000EA190EA0E30E
S11314500C108DE508208DE504308DE500F020E3C7
S113146000C050E20C109DE508209DE504309DE588
S1131470F3FFFF0A485194E50000A0E304008CE563
S113148000508CE548C184E588018CE58C018CE52D
S1131490000056E304409CE50700001A023084E291
S11314A0014084E203118CE704408CE50000A0E3D2
S11314B010D08DE2F041BDE81EFF2FE10100A0E352
S11314C01004A0E104818CE0020056E388719CE5DD
S11314D0083188E58C319C05007087E100008301A8
S11314E00850A0E1882088E588718CE58C018C0582
S11314F0E9FFFFEA8C18000000000000F04F2DE91E
S113150068319FE5003093E514D04DE204308DE559
S1131510523F83E208008DE50C308DE50170A0E1B7
S11315200180A0E304309DE5486193E5000056E3A3
S11315300CB09DE53300000A045096E5014055E2E5
S113154088A086521F50855205518A500700005AC0
S1131550290000EA003095E5070053E10500000A80
S1131560014044E2010074E3045045E22200000A11
S1131570000057E3F6FFFF1A043096E505206AE001
S1131580013043E2022086E0040053E1783012E5A2
S11315900010A0130440860578100215000053E3E0
S11315A0EEFFFF0A1824A0E1881196E5010012E17C
S11315B0049096E51600000A8C1196E5010012E1EC
S11315C01600001A08009DE5801015E50FE0A0E163
S11315D013FF2FE1043096E5090053E1D0FFFF1A11
S11315E000309BE5060053E1CDFFFF1A014044E2C1
S11315F0010074E3045045E2DCFFFF1A70109FE51C
S1131600000051E30900001A14D08DE2F04FBDE848
S11316101EFF2FE10FE0A0E113FF2FE1ECFFFFEA33
S1131620800015E50FE0A0E113FF2FE1E8FFFFEADA
S1131630043096E5000053E3003096E50800001AF4
S1131640000053E30600000A0600A0E100308BE529
S113165000F020E300609BE5000056E3B5FFFF1AAD
S1131660E8FFFFEA06B0A0E10360A0E1F9FFFFEAAA
S11316708C1800000000000008402DE910309FE5A0
S1131680000053E30C009F15C6FEFF1B0840BDE895
S11316901EFF2FE1B41800009C16000038402DE90D
S11316A030509FE530409FE5044065E04441B0E19F
S11316B0045185100400000A043035E50FE0A0E170
S11316C013FF2FE1014054E2FAFFFF1A780000EB08
S11316D03840BDE81EFF2FE1CC180000D0180000F0
S11316E008402DE91D0000EB30309FE5000053E376
S11316F0000093150300A00124309FE5000053E38C
S1131700001093150310A0010020A0E331FCFFEBAF
S113171010309FE5000053E3AAFEFF1BFEFFFFEA23
S11317200000000000000000C811000004E02DE5E6
S11317301800A0E304109FE5563412EFFEFFFFEA01
S113174026000200FEFFFFEAFEFFFFEAFEFFFFEABB
S1131750FEFFFFEAFEFFFFEAFEFFFFEAFEFFFFEAED
S113176070402DE96C509FE56C609FE5066065E074
S11317704661B0E1045045120040A0130500000A80
S11317800430B5E5014084E20FE0A0E113FF2FE14E
S1131790040056E1F9FFFF1A40509FE540609FE5C1
S11317A0066065E03A0000EB4661B0E10450451282
S11317B00040A0130500000A0430B5E5014084E2AE
S11317C00FE0A0E113FF2FE1040056E1F9FFFF1A37
S11317D07040BDE81EFF2FE1AC180000AC180000FB
S10B17E0AC180000B41800006D
S10717E800000000F9
S11317ECD0A5000090990000508D000010810000DD
S11317FCD074000090680000505C00001050000091
S113180CD043000090370000BF00000086000000A9
S113181CDB000000CF000000E6000000ED0000003B
S113182CFD00000087000000FF000000EF00000036
S113183CF7000000FC000000B9000000DE0000000E
S113184CF9000000F10000000000000055534E4167
S113185C204543343633204D4943524F434F4D506A
S113186C5554455220494E544552464143494E47DE
S113187C2046494E414C2050524F4A454354000097
S113188C18B20000430000000DC0A0E1F8DF2DE900
S113189C04B04CE228D04BE2F06F9DE81EFF2FE120
S11318AC78160000080200000DC0A0E1F8DF2DE955
S11318BC04B04CE228D04BE2F06F9DE81EFF2FE100
S11318CCC401000000000000000000000000000043
S10F18DC48B600002000000000000000DE
S11318E800000000000000000000000000000000EC
S11318F800000000000000000000000000000000DC
S113190800000000000000000000000000000000CB
S113191800000000000000000000000000000000BB
S113192800000000000000000000000000000000AB
S1131938000000000000000000000000000000009B
S1131948000000000000000000000000000000008B
S1131958000000000000000000000000000000007B
S1131968000000000000000000000000000000006B
S1131978000000000000000000000000000000005B
S1131988000000000000000000000000000000004B
S11319980000000000000054DE43000000000000C6
S11319A8000000000000000000000000000000002B
S11319B8000000B9FE7200000000000000000000F2
S11319C80000000000000000000000000000009F6C
S11319D8FE480000000000000000000000000000B5
S11319E8000000000000000000000097FE720000E4
S11319F800000000000000000000000000000000DB
S1131A08000000000000003CFEA3000000000000ED
S1131A1800000000000000003D797900000000008B
S1131A2800000024F1E311000000000000000000A1
S1131A3800001F85F2FEFE00000000000000000008
S1131A48C6FE420000000000000000000326E0FE7D
S1131A58FEFECF000000000000000000C6E10E00FA
S1131A680000000000000013CBFEFEFEFEDB1200A7
S1131A780000000000000000C6FE43000000000053
S1131A8800004BDDFEFE7334342800000000000023
S1131A9800000000C6FE430000000000097EFBFEB3
S1131AA8DB4D010000000000000000000000000001
S1131AB8C6FE430000003B85CDFEF0A623000000CF
S1131AC8000000000000000000000000C6FA3B000F
S1131AD81681F9FEF8B63900000000000000000085
S1131AE80000000000000000C6E51553E9FEFEBB37
S1131AF83A000000000000000000000000000000A0
S1131B0800000000C6FEECFDFFEE3E0500000000EC
S1131B1800000000000000000000000000000000B9
S1131B28AAFEFED1532C00000000000000000000B3
S1131B38000000000000000000000000348C6A125D
S1131B480000000000000000000000000000000089
S1131B580000000000000000000000000000000079
S1131B680000000000000000000000000000000069
S1131B780000000000000000000000000000000059
S1131B880000000000000000000000000000000049
S1131B980000000000000000000000000000000039
S1131BA80000000000000000000000000000000029
S1131BB80000000000000000000000000000000019
S1131BC80000000000000000000000000000000009
S1131BD800000000000000000000000000000000F9
S1131BE800000000000000000000000000000000E9
S1131BF800000000000000000000000000000000D9
S1131C0800000000000000000000000000000000C8
S1131C1800000000000000000000000000000000B8
S1131C2800000000000000000000000000000000A8
S1131C380000000000000000000000000000000098
S1131C480000000000000000000000000000000088
S1131C580000000000000000000000000000000078
S1131C680000000000000000000000000000000068
S1131C780000000000000000000000000000000058
S1131C880000000000000000000000000000000048
S1131C980000000000000000000000000000000038
S1131CA80000000000000000000000000000000028
S1131CB80000000000000000000000000000000018
S1131CC80000344D00000000000000000000000087
S1131CD800000000000000000000000000A9FAFB5A
S1131CE81F000000000000001386F8F8F8AE00009A
S1131CF80000000000000000A9FDFDD21200000051
S1131D080000004EC8FDFDFDFDFD7600000000004A
S1131D1800000074FDFDD219000000000019C6F887
S1131D28FDFDFDFDFDFD7B00000000000000007DC1
S1131D38FDFD200000000000B0EAFDFDFDAD192BFB
S1131D48FDFD7B0000000000000000ABFDD50C0089
S1131D5800004C80F6FDFDBD8D0C0014FDFD7B00DC
S1131D6800000000000000FFFD8E00000075F7FD74
S1131D78FDE98D0C00000014FDFDA6000000000024
S1131D88000000FFFDB0067AD1F7FDFD9F23000097
S1131D9800000014FDFDFD00000000000000009696
S1131DA8FDFDCEF8FDFDE7900C00000000000014D6
S1131DB8FDFDFD00000000000000005DDAFDFDFDF2
S1131DC8FDC63F000000000000000005A8FDFD005E
S1131DD800000000000000001E7A8C41410A000047
S1131DE800000000000000008FFD9B0000000000C0
S1131DF800000000000000000000000000000000D7
S1131E0800000005A6FD7B000000000000000000A3
S1131E1800000000000000000000000000000014A2
S1131E28FDFD7B0000000000000000000000000031
S1131E38000000000000000000000014FDF9290063
S1131E480000000000000000000000000000000086
S1131E580000000000000025FDF70000000000005D
S1131E680000000000000000000000000000000066
S1131E7800000096FDF700000000000000000000CC
S1131E8800000000000000000000000000000096B0
S1131E98FDA9000000000000000000000000000090
S1131EA8000000000000000000000096FD7500001E
S1131EB80000000000000000000000000000000016
S1131EC80000000000000093FD7500000000000001
S1131ED800000000000000000000000000000000F6
S1131EE80000000A7B390000000000000000000028
S1131EF800000000000000000000000000000000D6
S1131F0800000000000000000000000000000000C5
S1131F1800000000000000000000000000000000B5
S1131F2800000000000000000000000000000000A5
S1131F380000000000000000000000000000000095
S1131F480000000000000000000000000000000085
S1131F580000000000000000000000000000000075
S1131F680000000000000000000000000000000065
S1131F780000000000000000000000000000000055
S1131F880000000000000000000000000000000045
S1131F980000000000000000000000000000000035
S1131FA80000000000000000000000000000000025
S1131FB80000000000000000000000000000000015
S1131FC80000000000000000000000000000000005
S1131FD800000000000000000000000000000000F5
S1131FE800000000000000000000000000000000E5
S1131FF800000000000000000000000000000000D5
S113200800000000000000000000000000000000C4
S113201800000000000000000000000000000000B4
S113202800000000000000000000000000000000A4
S11320380000000000000A05000000000000000085
S11320480000000000000000000000000000000084
S11320583D8DD7C60000000000000000000000000D
S11320680000000000000000187897E4FBFEFEB0B2
S11320780000000000000000000000000000000054
S113208800397CABE8FEFEFEFECD790A00000000B4
S113209800000000000000000000205F8CEDFFFE3F
S11320A8D79F8E4242030000000000000000000099
S11320B80000002D54CAFEFEFECDA551000000000C
S11320C8000000000000000000000000265787F40C
S11320D8FEDFD8C34D080000000000000000000027
S11320E80000000000000000FEFCF1963F0B000019
S11320F800000000000000000000000000000000D4
S1132108000000006D520000000000000000000004
S113211800000000000000000000000000000000B3
S113212800000000000000000000000000000000A3
S11321380000000000000000000000000000000093
S11321480000000000000000000000000000000083
S11321580000000000000000000000000000000073
S11321680000000000000000000000000000000063
S11321780000000000000000000000000000000053
S11321880000000000000000000000000000000043
S11321980000000000000000000000000000000033
S11321A80000000000000000000000000000000023
S11321B80000000000000000000000000000000013
S11321C80000000000000000000000000000000003
S11321D800000000000000000000000000000000F3
S11321E800000000000000000000000000000000E3
S11321F800000000000000000000000000000000D3
S113220800000000000000000000000000000000C2
S113221800000000000000000000000000000000B2
S113222800000000000000000000000000000000A2
S11322380000000000000000000000000000000092
S11322480000000000000000000000000000000082
S11322580000000000000000000000000000000072
S11322680000000000000000000000000000000062
S11322780000000000000000000000000000000052
S11322880000000000000000000000000000000042
S11322980000000000000000000000000000000032
S11322A80000000000000000000000000000000022
S11322B80000000000000000000000000000000012
S11322C80000000000000000000000000000000002
S11322D800000000000000000000000000000000F2
S11322E800000000000000202525258CD9D9D9DA62
S11322F8711F000000000000000000000000000042
S113230800003FE7FBFBFDFBFBFBFBFDFBE63E00A0
S113231800000000000000000000000000B6DDFB23
S1132328FBFBFDFBFBFBFBFDFBFB8E000000000041
S1132338000000000000006EFDFFFDFDFDC9000067
S113234800000049FDFDFD480000000000000000F9
S1132358000015BEFBFDFBFBBC1E0000000000498D
S1132368FBFBFBAE00000000000000000B25C5FBD2
S1132378FBFDFBDC14000000000000E4FBFBFBFB9E
S1132388000000000000000096FBFBFBFBFDFB893E
S113239800000000000000FDFBFBFBAD0000000096
S11323A800000000FDFBFBFBFBFD930A000000009E
S11323B8000000FDFBFBFB470000000000000000DC
S11323C8CAFDFDFDFDEA4D00000000000000B6FF57
S11323D8FDFDFD4800000000000000001F6B6BA914
S11323E8FBDE3E00000000001590DDFDFBE66B1EE1
S11323F800000000000000000000006DFBFD801FCD
S1132408000000003FFBFBFDFBBD000000000000D6
S1132418000000000000003EDCFDFBE66D1F206D9F
S1132428E7FBFBFDFB2300000000000000000000A8
S11324380000000033FDFBFBFBC8CAFBFBFBFBFDF4
S1132448930A0000000000000000000000000000E3
S1132458000069F3FDFDFFFDFDDDB4000000000090
S113246800000000000000000000000000000071EF
S1132478FBFBFDFBE63D000000000000000000003F
S11324880000000000000000000000052323A4232E
S11324981E00000000000000000000000000000012
S11324A80000000000000000000000000000000020
S11324B80000000000000000000000000000000010
S11324C80000000000000000000000000000000000
S11324D800000000000000000000000000000000F0
S11324E800000000000000000000000000000000E0
S11324F800000000000000000000000000000000D0
S113250800000000000000000000000000000000BF
S113251800000000000000000000000000000000AF
S1132528000000000000000000000000000000009F
S1132538000000000000000000000000000000008F
S1132548000000000000000000000000000000007F
S1132558000000000000000000000000000000006F
S1132568000000000000000000000000000000005F
S1132578000000000000000000000000000000004F
S1132588000000000000000000000000000000003F
S1132598000000000000000000000000000000002F
S11325A8000000000000000000000000000000001F
S11325B8000000000000000000000000000000000F
S11325C800000000000000000000000000000000FF
S11325D8000000000000000000000000000F1609C1
S11325E800000000000000000000000000000000DF
S11325F80000000000000054A9E1FCCCA929000057
S113260800000000000000000000000000000000BE
S1132618002DA8F2FCFCA4D1FCAA000000000000D4
S113262800000000000000000000000445ECF7D39F
S11326386A000012C7F53100000000000000000025
S113264800000000003279C3FCD935000000000006
S113265855FC5400000000000000000000000000C9
S113266800E0E7E7860C00000000000055FC540079
S1132678000000000000000000000000000000004E
S1132688000000000000000055FC54000000000099
S1132698000000000000000000000000000000002E
S11326A80000000055FC5400000000000000000079
S11326B8000000000000000000000000000000000E
S11326C881E8000000000000000000000000000095
S11326D8000000000000000000000000A4E7000063
S11326E800000000000000000000000000000000DE
S11326F80000000000000016C3FBA17F807F87E86C
S1132708B30000000000000000000000000000000A
S11327182086A9FDFCFCFCFCFDFCFCEC420000004E
S113272800000000000000000000128DE8FCFCFD21
S1132738FCFCFCFCFDFCF46F000000000000000041
S11327480046946072C0FFFDFAD3A76B6A09002D96
S1132758000000000000000000000000001DA8D2D6
S1132768FCFCFDBD42000000000000000000000069
S113277800000000000000000000000B15151505FE
S1132788000000000000000000000000000000003D
S1132798000000000000000000000000000000002D
S11327A8000000000000000000000000000000001D
S11327B8000000000000000000000000000000000D
S11327C800000000000000000000000000000000FD
S11327D800000000000000000000000000000000ED
S11327E800000000000000000000000000000000DD
S11327F800000000000000000000000000000000CD
S113280800000000000000000000000000000000BC
S113281800000000000000000000000000000000AC
S1132828000000000000000000000000000000009C
S1132838000000000000000000000000000000008C
S1132848000000000000000000000000000000007C
S1132858000000000000000000000000000000006C
S1132868000000000000000000000000000000005C
S1132878000000000000000000000000000000004C
S1132888000000000000000000000000000000003C
S1132898000000000000000000000000000000002C
S11328A8000000000000000000000000000000001C
S11328B8000000000000000000000000000000000C
S11328C800000000000000000000000000000000FC
S11328D800000000000000000000000000000000EC
S11328E800000000000000000000000000000000DC
S11328F800000000000000000000000000000000CC
S113290800000000000000000000000000000000BB
S113291800000000000000000000000000000000AB
S1132928000000000000000000000000000000009B
S1132938000000000000000000000000000000008B
S1132948000000000000000000000000000000007B
S1132958000000000000000000000000000000006B
S11329680000000000000503000000000000000053
S113297800000000000000000000000000001C56D9
S113298869AFD39E1A000000000000000000000098
S1132998000000000000003C4FA3FCFEFEFEFEFE0B
S11329A89D0000000000000000000000000000007E
S11329B83A6FA3FCFEFEFEFEEACCC4A06B00000046
S11329C80000000000000000073586C4FEFEFEFE7D
S11329D8FEEED28314050000000000000000000091
S11329E800001351CBFEFEFEFEFEEEDF9A3500001A
S11329F8000000000000000000000000004DE3FE9D
S1132A08FEFEFEF8ED841C0000000000000000003B
S1132A18000000000000000000FEFEFEFEFAB430D4
S1132A28000000000000000000000000000000009A
S1132A3800000000006BFEA5490000000000000033
S1132A48000000000000000000000000000000007A
S1132A58000309010000000000000000000000005D
S1132A68000000000000000000000000000000005A
S1132A78000000000000000000000000000000004A
S1132A88000000000000000000000000000000003A
S1132A98000000000000000000000000000000002A
S1132AA8000000000000000000000000000000001A
S1132AB8000000000000000000000000000000000A
S1132AC800000000000000000000000000000000FA
S1132AD800000000000000000000000000000000EA
S1132AE800000000000000000000000000000000DA
S1132AF800000000000000000000000000000000CA
S1132B0800000000000000000000000000000000B9
S1132B1800000000000000000000000000000000A9
S1132B280000000000000000000000000000000099
S1132B380000000000000000000000000000000089
S1132B480000000000000000000000000000000079
S1132B580000000000000000000000000000000069
S1132B680000000000000000000000000000000059
S1132B780000000000000000000000000000000049
S1132B880000000000000000000000000000000039
S1132B980000000000000000000000000000000029
S1132BA80000000000000000000000000000000019
S1132BB80000000000000000000000000000000009
S1132BC800000000000000000000000000000000F9
S1132BD800000000000000000000000000000000E9
S1132BE800000000000000000000000000000000D9
S1132BF800000000000000000016A3A2A233000099
S1132C0800000000000000000000000000000000B8
S1132C18000000144699FFFDFDE4110000000000C7
S1132C28000000000000000000000000000011BDCA
S1132C38FDFDCCB2FDFD41000000000000000000D5
S1132C4800000000000000000016EBFDFD600B050D
S1132C58BFFD890000000000000000000000000023
S1132C680000000000C0FA9315000000AFFEFE004B
S1132C780000000000000000000000000000000048
S1132C880086A9000000000046FDE80000000000DE
S1132C980000000000000000000000000020000008
S1132CA80000000046FD890000000000000000004C
S1132CB80000000000000000000000000000000008
S1132CC846FD89000000000068D0D0D03D00000017
S1132CD800000000000000000000000046FD89001C
S1132CE800559EE7FEFDFDFDBE000000000000004B
S1132CF8000000000000000085FE2C22A0FEFEF467
S1132D08E89D9AFE8000000000000000000000001A
S1132D1800000009C5FDFDFEFDF1A53200005BFDC4
S1132D2817000000000000000000000000000083FD
S1132D38FDFDFDCE45320000000DCC9A06000000D2
S1132D480000000000000000002B68EDFDDBA11569
S1132D5800000000001EA11D00000000000000008B
S1132D68000000002BE7FEFDA9230000000000007E
S1132D7800000000000000000000000000000F8BAD
S1132D88FEFE9E000000000000000000000000009D
S1132D980000000000000000000FDCFDAD5C000036
S1132DA80000000000000000000000000000000017
S1132DB800000000004DF1640D0000000000000058
S1132DC800000000000000000000000000000000F7
S1132DD800052500000000000000000000000000BD
S1132DE800000000000000000000000000000000D7
S1132DF800000000000000000000000000000000C7
S1132E0800000000000000000000000000000000B6
S1132E1800000000000000000000000000000000A6
S1132E280000000000000000000000000000000096
S1132E380000000000000000000000000000000086
S1132E480000000000000000000000000000000076
S1132E580000000000000000000000000000000066
S1132E680000000000000000000000000000000056
S1132E780000000000000000000000000000000046
S1132E880000000000000000000000000000000036
S1132E980000000000000000000000000000000026
S1132EA80000000000000000000000000000000016
S1132EB80000000000000000000000000000000006
S1132EC800000000000000000000000000000000F6
S1132ED800000000000000000000000000000000E6
S1132EE800000000000000000000000000000000D6
S1132EF800000000000000000000000000000000C6
S1132F0800000000000000000000000000000000B5
S1132F1800000000000000000000000000000000A5
S1132F280000000000000000000000000000000095
S1132F380000000000000000000000000000000085
S1132F4800001F4F56AF561200000000000000009A
S1132F580000000000000000000000001C90F1FECA
S1132F68FDFDFDEE4400000000000000000000002C
S1132F78000000000000005BEBFDFDC1509BD0FD8C
S1132F88F044000000000000000000000000000001
S1132F9800000EE0FEFED000000028FEFF9E0000A8
S1132FA8000000000000000000000000000095FD83
S1132FB8FDFDB908000055FDFE8E0000000000006C
S1132FC800000000000000000000C1FDFDFDFD62DE
S1132FD80000A6FD910C00000000000000000000A5
S1132FE80000000000000513A6FDFDDBB6EAFBB9EE
S1132FF808000000000000000000000000000000BD
S11330080000000012EEFDFEFDFDED2400000000AE
S113301800000000000000000000000000000000A4
S11330280073E7FFFEFEFED88609000000000000DA
S1133038000000000000000000000000000618C99D
S1133048BF87ECFDFEAF580200000000000000003E
S11330580000000000000000000000120C002A9884
S1133068DFFDFDA6300000000000000000000000A5
S113307800000000000000000000000023A1E2FDA1
S1133088F5731500000000000000000000000000B7
S113309800000000000000000000127EFDFEDA1EA1
S11330A80000000000000000000000000000000014
S11330B8000000000000000026ACFEFEBA0E00006E
S11330C800000000000000000000000000000000F4
S11330D80000000000092EA5F4DF00000000000035
S11330E800000000000000000000000000000000D4
S11330F8000000002A4E000000000000000000004C
S113310800000000000000000000000000000000B3
S113311800000000000000000000000000000000A3
S11331280000000000000000000000000000000093
S11331380000000000000000000000000000000083
S11331480000000000000000000000000000000073
S11331580000000000000000000000000000000063
S11331680000000000000000000000000000000053
S11331780000000000000000000000000000000043
S11331880000000000000000000000000000000033
S11331980000000000000000000000000000000023
S11331A80000000000000000000000000000000013
S11331B80000000000000000000000000000000003
S11331C800000000000000000000000000000000F3
S11331D800000000000000000000000000000000E3
S11331E800000000000000000000000000000000D3
S11331F80000000000000000000000000000000CB7
S11332085C96EAFF8B030000000000000000000049
S1133218000000000000000000000685FDFDFDFD23
S1133228FD35000000000000000000000000000060
S113323800000000000BB1FDDFAEF6FDFDDA000072
S11332480000000000000000000000000000000072
S113325814CEFDE91C007FFDFDDE00000000000027
S113326800000000000000000000000084FD840F3E
S1133278000031FBFDFB43000000000000000000DB
S11332880000000000000000484E0A0000000093FF
S1133298FDFD4800000000000000000000000000E0
S11332A800000000000000000000005BFDFDC8787D
S11332B83209000000000000000000000000233F65
S11332C83900000000000079FDFDFDFDFDA7170091
S11332D8000000000000000000008EFDEE20000049
S11332E800000055FDFDFDF9FDFDB40000000000DF
S11332F8000000000000F4FDE30000000000002AC4
S1133308FDFDFD98FDFDE75D0000000000000000E4
S1133318004BFCFDEE1E00000000002AFDFDFD33FD
S1133328BCFDFD9500000000000000000099FDFDB3
S1133338A802000000000055FDFDFDA4FCFDDD16FB
S1133348000000000000000011D9FDFD7C00000011
S11333580000001CE8FDFDFDFDFA800000000000EF
S1133368000000002FFDFDFD4500000000000000E6
S1133378A8FCFDFDFDAF00000000000000000000F7
S11333882FFDFDFD1400000000000000007CAFAF1D
S1133398940B000000000000000000002FFDFDD584
S11333A80B00000000000000000000000000000006
S11333B8000000000000000010D7FDAA0000000073
S11333C800000000000000000000000000000000F1
S11333D80000000081F6FDAA0000000000000000C3
S11333E800000000000000000000000000000000D1
S11333F855FDFDAA000000000000000000000000C8
S11334080000000000000000000000002FFDFDAADD
S113341800000000000000000000000000000000A0
S11334280000000000000000000000000000000090
S11334380000000000000000000000000000000080
S11334480000000000000000000000000000000070
S11334580000000000000000000000000000000060
S11334680000000000000000000000000000000050
S11334780000000000000000000000000000000040
S11334880000000000000000000000000000000030
S11334980000000000000000000000000000000020
S11334A80000000000000000000000000000000010
S11334B80000000000000000000000000000000000
S11334C800000000000000000000000000000000F0
S11334D800000000000000000000000000000000E0
S11334E800000000000000000000000000000000D0
S11334F800000000000000000000000000000000C0
S113350800000000000000000000000000000000AF
S1133518000000000000000000000000000000009F
S1133528000000000000000000000008484B0900EB
S1133538000000000000000000000000000000007F
S1133548000000000000007EF3F0AF00000000005F
S1133558000000000000000000000000000000005F
S1133568000099FDFEFEF4100000000000000000B9
S1133578000000000000000000000000002EEAFE29
S1133588E4DFFD880000000000000C4ED1E3710068
S113359800000000000000000099FEE9366DFFC33A
S11335A800000000000DE4FFFEFFFF000000000023
S11335B8000000002DF0FE80008AFEB000000036F6
S11335C883F9FEFEFEE96C00000000000000000024
S11335D898FEBB0B00B2FE92000064F1FEFEFEFEF4
S11335E8891900000000000000000024EAFE8E0093
S11335F800B2FB990076F2FEFEFED0420000000005
S11336080000000000000038FEE3080000A9FEC81E
S1133618A2FAFEFEF4980800000000000000000072
S113362800000089FEA6000003D2FEFEFEFEFEF2A4
S1133638400000000000000000000000000000C975
S1133648FE85000020FBFEFEFEFED33B00000000CA
S11336580000000000000000000000C7FEFBBFD20D
S113366874E7FEFEF15A07000000000000000000A5
S1133678000000000000005FFEC8282BE1FEFEFEEB
S113368863000000000000000000000000000000CB
S113369800000025FAFEC646F2FEFC960300000070
S11336A8000000000000000000000000000000000E
S11336B8D3E5F6FEFEFEAB1000000000000000009B
S11336C800000000000000000000000097E1DFFE99
S11336D8FFE81900000000000000000000000000DE
S11336E800000000000000000668FDFEA22600009D
S11336F800000000000000000000000000000000BE
S1133708000000000000151505000000000000007E
S1133718000000000000000000000000000000009D
S1133728000000000000000000000000000000008D
S1133738000000000000000000000000000000007D
S1133748000000000000000000000000000000006D
S1133758000000000000000000000000000000005D
S1133768000000000000000000000000000000004D
S1133778000000000000000000000000000000003D
S1133788000000000000000000000000000000002D
S1133798000000000000000000000000000000001D
S11337A8000000000000000071AA35BAA7212ABA57
S11337B825CE8ABA68E81FBADA8C53BABD3706B67A
S11337C83CBC67BACB9D99B930629FB70000000032
S11337D8B5FE1639000000800000000000000080DB
S11337E8000000800000000000000000000000004D
S11337F800000000000000000000000000000000BD
S1133808000000000000000000000080000000002C
S1133818EE9323B80A14B1BA5A6526BB90F980BB53
S11338287041B6BB1F9F10BC62F632BC59FCA6BBE4
S113383820B6F4BAB5FE96B752491DB9306560B9D9
S1133848931A5AB83B70CEBA0B5D89BADE21C5B853
S11338589C5349B60000000000000000000000006E
S1133868000000000000000000000000000000004C
S113387800000080BD3786B5BD3786B5BD3786B62E
S113388857ED9ABADAAC7ABB348378BC25B0B9BCA4
S11338989F01F5BCEB3628BDB7EE26BD5680EFBCBC
S11338A80F4581BCE23A46BCDC7EF9BB14773CBCCC
S11338B89C5008BC31B1F9BB8CD7BCBB77D759BB7A
S11338C85DA791BBA67B1DBB03249AB98DF0F6397D
S11338D800000000000000000000000000000000DC
S11338E8BD3706B84E2B05B95985CDB8399B8EBA64
S11338F85B0BB3BB463F9ABCB29B59BD603A6DBDE6
S11339086F826FBDC2C249BD1F48DEBC3A5AD5BBDF
S113391833DC803C404E183C92AE19BB7CB8E4BC06
S1133928D0EE50BD90F940BDABB019BD97A9C9BC44
S1133938F9F458BC30629FBBEC6A72BB5D1A3FBB9A
S1133948000000000000000000000000BD3706B6BB
S113395830629FB7EE93A3B84B1FBAB968588CBBB3
S1133968F489BCBC1EC48EBDEF57E1BD21AF07BEB0
S1133978C37EAFBDD0B61A3C9164D63D5B243D3EB0
S11339889758193E310BAD3D70283C3D8AC830BD6F
S1133998A303B2BDA59EC5BD012F93BDC8254EBDC9
S11339A844C40DBDEFAD08BD32746CBA3752B63B92
S11339B8637A423C40DA7FB8000000009C53C9B6E1
S11339C8B5FE16B7CDAC25B90E4F2FBB198C91BCDB
S11339D8EEB29FBDE36C1ABE6E8726BE0B28D4BD1B
S11339E855142F3CBDAA133E0D1D6B3E58C58B3E86
S11339F8B0E2343E1EE29F3D50FD83BA8D62B9BDEC
S1133A08E2390BBED73304BE65E3C1BD20B49EBD05
S1133A18FB5AB7BDEF8C76BDF3C7B43BD13D6B3DC4
S1133A28AB21F13CA48C38B900000000514C5EB8BD
S1133A38378C82B9C57336BA1F1494BB225429BD76
S1133A489297F5BD77494CBEF7911BBEA8C7B6BB84
S1133A5884BCDE3D103B333E6A13673E0FB84E3ECE
S1133A68389F2A3E6DAA2E3DA16773BD088ECBBD33
S1133A786B630CBE651C23BE807D34BECB2E18BE82
S1133A88A9BD08BE878CA7BD24D48C3CF0519F3DAA
S1133A988509633DC367EB390000000082A8FBB8C1
S1133AA815E291BAB37831BB6B2835BC41F379BDC3
S1133AB8E7FF25BEEED16BBEF20C2ABE6F12833926
S1133AC895649D3D624E303EA5BE3C3E707B223ED1
S1133AD8B0AEEA3D06BD773DB01CA13C41D73EB926
S1133AE81B9EFEBDBBEF28BE016D83BE6A6758BE30
S1133AF8D96031BEA3B0ABBD6286863D8123E13D6A
S1133B0805DF743D581C4E3B00000000C782C2B953
S1133B18A452ECBAD82AC1BB6878B3BC38DCA7BDB8
S1133B28273233BEBAF81BBE40A289BCAE47613CFB
S1133B38D2361E3E5C558E3E29CB303E2FE0153ED4
S1133B48B820DB3D139DC53DA6F1CB3D5DDF873D28
S1133B584F965ABD360437BEFA7B89BE87335FBE9B
S1133B686952EABDE2218CBC95F4903DAF27FA3D39
S1133B787310943D2B84D53A000000001CD228BA57
S1133B88A6B82ABB21AE1CBCE67930BD9066ECBD54
S1133B98F4F80DBEBBECB7BD95645DBD4ED0A63C34
S1133BA802F1DA3D3AE8223E815A6C3E49A0A13D31
S1133BB8817A333D52EDD33CCE52323B7A38813D43
S1133BC88202EFBBB98C5BBE69E4A3BE33FA61BE63
S1133BD8CC27EBBD508FADBD59BF19BCCF84C63DB2
S1133BE8A2B3EC3D2909093B00000000BD3A47BADD
S1133BF82A029CBBAAEF7CBC776A6EBDB1A2A6BDA3
S1133C0809F9A0BD560D02BD774DC8BCD8D38E3D69
S1133C181630113EC79B5C3EF6402B3EE946983D64
S1133C28AD4B8DBA9CC0343D200AA63DCA34DA3D5A
S1133C3898F8A33DEB7054BE1F83BDBE18B187BE70
S1133C4849F2DCBD147566BC13816A3C3814FE3D28
S1133C585A83173E2B84553B00000000F486FBBAB8
S1133C685182FEBB768BC0BC1478A7BD192051BC09
S1133C78F299EC3C876F813D2A1F02BD3F1A4E3DE5
S1133C88BA4C2D3E07CE393E51F6163D6D386CBD03
S1133C98B9AA6CBDA873C53CED9B9B3DEF53953DFC
S1133CA8C98E0D3DA9D878BE4E44CFBE96089CBE99
S1133CB86420CFBDFA445EBD06D8C7BCC45EA83D27
S1133CC8FD30123E9A44BD3AEE96E4B82CF180BB1E
S1133CD82FF749BCB1170ABD5C5AEDBD7768D8BC4B
S1133CE87748B13DC5AB5C3EF9C00EBDAD85193D05
S1133CF83C30A03D246074BDAFB537BECD0112BEC3
S1133D081ADD81BD965CC5BC52B81EBD82ACA7BC89
S1133D18FF9109BE2D2365BE3F1DB7BED00D7DBEE4
S1133D281CF039BD05A227BD6AA099BD118FC43DF9
S1133D38AB764D3ED2704A3BD1CD7EB9B89308BB21
S1133D48F8C179BC621143BD1A1A0FBEDAE606BD82
S1133D586A17533EDEC9AF3E0E30033E897A413DB1
S1133D680DE2E3BDC3F1FCBD9E7B8FBCA8FD163DEF
S1133D78FBC998BCB283EABD925A38BE7F2FE5BD11
S1133D88DFA8F5BD9CFB1BBE1EA718BEF86F3EBE80
S1133D986B27EABD17B6C6BDC496DEBDFE0AF93D5B
S1133DA84EED4C3E829197BCBD3786B6AB05F6BA4C
S1133DB85A828CBC9E607FBD62DC3DBE4B760CBED5
S1133DC8CD21593EE887F13EE8A2993E2639103EB6
S1133DD8CC7D32BD8FA54FBD5C77233E6F492E3E07
S1133DE80D54C63C86E705BE8D28EDBDDD446DBD8A
S1133DF88DD43B3DF0BEEABDB9883FBE7A3841BE9A
S1133E08AED6A9BD5AF0A2BD401602BED34C073E99
S1133E181022693EEA059FBB000000804F5D79BB14
S1133E28732A99BC6E3395BD94166EBE6F0F52BE3D
S1133E38AB252D3E55F8FB3E00378B3E6E87263E5C
S1133E4825B079BD7E72943DA375543E88855A3E4B
S1133E58CFF81E3E84D8F93DB2BCAB3D19FF1E3ED7
S1133E68F1A0593D6C5EF5BDF1F525BEDF3352BEB8
S1133E78A0FE43BEC72A45BE89D474BDBC05F23D25
S1133E880CE71A3E12117EBC000000006C09F9BB55
S1133E980EDAABBC8A758ABDD80D7BBE6EA1A3BEF3
S1133EA85BB11F3E6EA5DF3E8AAD303E25CD9F3CFB
S1133EB8069E3BBDF67AF73D4567813EA373B63E41
S1133EC8ADFCAA3EA52E893ED332623ED53D923D35
S1133ED88EAEB2BD23A002BED13E06BE356226BE5A
S1133EE84A792DBE46EC13BE005386BC31263D3EAE
S1133EF8D029083EB69EA1BC00000000793D98BBBD
S1133F08118D6EBC3D454EBDA5F943BE19E69CBE58
S1133F18EDD8E83D5989893E7FFA8F3D37E2C9BB20
S1133F2814CF193D99A0763E357F9C3EBA4EAB3EE0
S1133F380E88903E2521913E10CB263E4390033CAB
S1133F486EA2F6BDE1971ABE4B0505BE03B051BE7D
S1133F58D1CE49BE2732F3BD2F6EC33D433A5C3EF2
S1133F68C153C83DB6D9D8BC00000000A6D590BA44
S1133F7839B61EBCD7A506BDDA8D0EBE72A586BE9F
S1133F88DF36933DD5B11A3E350B743DD881333DA8
S1133F988F545F3D19E3633E5070993E56618B3EE2
S1133FA834F7303E1232D03D03788B3C72C0AEBD3C
S1133FB85E2DF7BDE8A4F7BDE2572CBEFB3D51BE0C
S1133FC8A7E933BE1A1AAFBDE1D4073E2924793EC6
S1133FD82E1EDE3DF838D3BC00000000B5FE16BA2C
S1133FE8F69B09BCA818E7BC7A52E6BD98C35EBE26
S1133FF871A90ABD2A36663D89CF1DBDE623A9BC31
S11340086500A8BB91444F3ED315AC3ECB2B9F3ED5
S1134018CCEBC83D9850C13CCC0784BD448BECBD67
S1134028C09481BD30F147BDE7708DBDBC4009BE69
S113403866BB32BE6CD017BDD5D0263E999D853E51
S11340487922C83D507031BC00000000282930BADC
S1134058D61BB5BB00C6B3BCBB43AABD4A7F4FBE83
S11340680054B1BD957FAD3CBFB97FBDDB4C45BDA8
S1134078A5A39C3C336C9C3EF301B93E46458C3E5B
S1134088C879FF3DE02D903AA566CFBD4E2709BEFD
S11340989697BCBD348182BD6B2AABBD84479BBD5A
S11340A80C0140BD4D65513D0379563E1C0B7A3ECB
S11340B88BA79E3DE5D44E3B00000000ACC5A7B9D4
S11340C8562D69BB19FE53BCB2F481BDDA5633BE12
S11340D82E8E2ABE569F6BBDB6BA9C3B4698A2BD8F
S11340E829E9E13CE23C843E95479F3E295B643ED6
S11340F8E371113D91B8E7BD9B7566BEFA4353BEA3
S1134108B61034BEC50124BEEF700BBEE75472BDB1
S1134118D787F53B4BCDFE3D9D84523E6B993C3E83
S11341287AE2393D6633873B000000007233DCB81D
S1134138753FA7BA721AA2BBC70F15BD978D1EBECD
S1134148B1F762BE4D2E56BEE2AF09BEA5BECCBDC8
S1134158931A5ABBEE941E3E80D2503EFAEF813D2C
S1134168A583B5BD2C9F45BE72364DBEB2D961BE7E
S1134178B2A14BBE5E0E1BBE3D82DBBD284741BDCE
S11341888C31303D4C6E043E0D500A3EC70E8A3DBC
S11341985514AF3BB9E2623B000000006AF72BB844
S11341A83ECBF3B9B3EF0ABB9B7285BCF019C9BD0A
S11341B850C648BE5E1372BE03234FBE03EE29BE2B
S11341C86BB8A8BD28B597BC27301D3DF166ADBDB9
S11341D8AA2B2FBE3A7846BE49D857BEAA614FBE0D
S11341E8E4113CBE90BCF3BD44187FBD8A7700BC83
S11341F81F83553D9566933D36E9963D8EE6C83C4A
S1134208261DE53A696E05BA0000000000000000AA
S1134218556735B9470463BA9291B3BB10402ABDB8
S11342287250E2BD3F8C20BE118A0DBEE4F405BE77
S11342386763E5BD3A9396BD338B90BD2FDFDABD36
S1134248D94200BE2A3701BE761B04BE147601BECD
S113425841D6D3BD3E7B6EBDE0F343BCDA59743C12
S1134268E6CB8B3CB8CA933C375577BBBE697ABB5F
S1134278A48C383900000000000000000000000091
S1134288931A5AB7FF0502B962BEBCBA65E341BCCA
S1134298C74C22BDC50475BDF6EC79BD143D70BD8F
S11342A8E7525CBD17B711BD2FE110BD2C0C51BDF1
S11342B8B5A423BDB80420BDBD8F23BD8690F3BC2F
S11342C8CD94D6BC151B73BCE3FF8E3AA53245BB0F
S11342D8A38FF9BA22E266BB04E3E0BB6347E3BAFF
S11342E8BD3706B700000000000000000000000011
S11342F800000000BD3706B616A584B9034100BB0B
S1134308BE1333BC75055BBC59FA50BC40A289BCCA
S113431855BD7CBC998320BCDC8225BCAD4E4EBC0B
S113432809DE90BBA22850BCD8640DBCAB798EBB07
S11343384910AEBA8C4A6ABB1C951BBBFDBF6ABB4D
S113434850C678BABCB1A0BA6A3439BB8A5844BBDF
S11343580000000000000000000000000000000051
S11343680000000000000000B5FE96B70745F3B74B
S1134378C1585FB9E5D10DBAB587BDBA0F7E62BA27
S1134388AED4B3BA5C9118BA5FB2F1B973301BBA40
S113439882A87BB7DEAA6BBA074573B917B7D1B938
S11343A8E23C1CB9BD3786B59C5349B60000008071
S11343B80000008000000000000000000000000071
S11343C800000000000000000000000000000000E1
S11343D800000000000000000000000000000000D1
S11343E800000000000000009C5349B620F0C0B74C
S11343F87B690AB88BE1EAB7931A5AB79C5349B652
S11344086AF7ABB9CDAFE6B8931A5AB70000000003
S113441862BE3CB8BD3786B600000000ACC5A7B67E
S1134428ACC5A7B6000000000000000000000000B2
S11344380000000000000000000000000000000070
S113444800000000000000000000008000000000E0
S11344588BE1EAB6282C71BA01DBC1BA1B12F7BA90
S11344687651F4BAD39FFDBA33FA51BA514CDEB837
S113447892088DB9FC7010BA7D7896B9282C71B958
S1134488F7CC12B8B5FE16BA72335CBA49136FB8D2
S1134498BD3706B600000000000000000000000060
S11344A80000000000000000000000000000000000
S11344B8000000808BE16AB7E65AB438E65DF5B8C7
S11344C8B01D8CBADE3E2BBB494DBBBBF2D338BC06
S11344D8E2B11FBC4721C9BBF12F82BB556A76BA2A
S11344E87651F4B9CF328BBAE94919BB22C23FBB22
S11344F8BDC36DBBAA108FBB6762BABBCD3CB9BB49
S1134508E78D93BB008FA8BAA48CB8B830629FB863
S1134518000000000000000000000000000000008F
S1134528B5FE16B7514C5EB8282C71B9C311A4BB9B
S1134538B13470BCA2B863BC1E8917BCAA9935BC37
S1134548541FC8BC3EB3A4BC4AD320BBDFA72ABAB5
S113455806F101BC581E24BC82AC27BC62A3ACBCC7
S1134568929434BD2EAE71BD7C7D6DBD80D727BDC0
S1134578BAD7C9BC00CA5FBC713A49BCE36B4FBB2C
S1134588000000000000000000000000000000809F
S1134598BD3786B71CD228B97EC7F0BA670D5EBC92
S11345A8BDFBE3BCEF1F8BBCE23FDDB99A055A3C67
S11345B8D6AD1E3D7027913C0586ACBB0683EBBC8B
S11345C86C084EBDF20658BDFF038CBD58AAABBD9E
S11345D857B1F8BDA9FBE0BDB9C7B2BD31D396BD8B
S11345E86CEA9CBD8257ABBDC30F8EBD28BB19BDF9
S11345F8CA54C1BB9C53C9B700000000BD3786B577
S11346089C53C9B6D46270BA6A1412BCE0F7EFBC02
S11346182E0439BDE96429BD69519F3CB401983D14
S11346283BDFAF3D5CAAD23D44FC833D067FBFBC63
S11346388DD49BBD914209BE4D2D2BBE6C7634BEE4
S1134648E02F06BE674429BDAA2D35BD57B138BD34
S1134658B83FF7BDB45B5BBEB2B92ABE4BC992BDC5
S113466867BA57BCDE1E84B800000000BD3706B622
S11346780B5D09B9AA100FBB7407B1BC717455BDA1
S1134688ADA29FBDFF5ADEBCF8E3B63DDB140F3E76
S1134698C7B91D3E4D872E3E2BA19B3D82393ABD9D
S11346A83E9428BE21AF57BEBB973BBE33E01CBE29
S11346B841EF8DBD1478273D86AA983DAC1D853DF4
S11346C8082035BDF3AD7FBEB9AB67BE3A5CABBD60
S11346D8BAF4AFBCE65AB4B8000000007B690AB863
S11346E8B3EF8ABA5C0105BC026127BD420888BDE4
S11346F83C2D7FBDF3E2043D802B093ED6020B3EE0
S1134708C1AB353E72877D3E1536133E3C4A85BDA6
S11347187D4088BEE86A6BBE3D43B8BD821F553CE8
S1134728E962133D64E6A23DF0A33A3EEBE10B3E99
S1134738321D7A3D5F0D10BE147556BEF3E3EFBD0E
S1134748AA46AFBCDA032DB900000000151F1FBA32
S1134758768B40BB698A80BC8CF638BD289C9DBD8D
S1134768B79B60BC17F19D3DA166883D18EEFC3DE2
S11347784B78323E92E9703E4FACD33D978EB9BD2B
S11347886B6291BE87194ABEA60C5C3D7D24353EFA
S113479815C7113E1710DA3D12DCC83D06F1813DFC
S11347A8C1585F3D0F643D3DA74191BD08CC23BE70
S11347B8DD42D7BC9C5088B900000000FA6184BA75
S11347C878EDD2BB63EEDABCB8CA53BD496675BD91
S11347D82F3281BCFE7CDB3C9F77C33D83321D3E78
S11347E809154C3E6F12833E5B41D33D992802BDA7
S11347F8A5F963BE8386DEBDE0498B3D0AF7823E98
S11348086895593E3CBD223E32AEB83A89D0483DFF
S1134818E25CC3BB9D2B0A3D9B3CE5BC244524BEFE
S113482821AE1CBD55DE0EBA00000000F96445BA7D
S113483865381EBC2B6E1CBDF3E846BD87A280BD3F
S11348486B7FE7BCBBEC173D4A7F8F3D8194183ED4
S113485832775D3ED9B53D3EF4FE3FBD17F41EBE2A
S1134868C710C0BD24287EBD1D1FAD3C915FBF3D50
S11348786A303D3ED2AB013EBADB753CE7C2C8BCE8
S11348885001B0BCC2DE44BB56D3753C884AC3BD94
S1134898BFF260BD158F8BBB00000000282CF1B956
S11348A8CDCC4CBCE5D363BDE3C36CBCD4993B3DD0
S11348B81A88653DE25CC3BCF84FB73C2BD9F13D7F
S11348C83080303E2AADFF3D92E825BDE292E33BBD
S11348D88BDDFE3D1F671ABB7B694A3DF67E633E4E
S11348E8300D8B3EBC5A6EBB4A7FCFBDB8B1D9BC24
S11348F8D95DA03DADF8863D79AFBA3D8448C6BDC3
S1134908B1FD64BD8DD04FBB9C5349B8D1CA3DBAE3
S113491833DD6BBCB79794BD581E643DE84B0F3E1E
S1134928EAB4CE3D58E457BDA9DAEE3D4816B03D89
S11349386B9FEE3DC2F8193ED6020B3E5A0D593E06
S11349489BC6763EC5A9463E2CEF923E4BB1A33E8C
S11349587902313E54008C3CB37D483CD3846D3C91
S11349683737063E8C4D1B3E2387C83D3B5308BE54
S1134978F6CE88BD789A4CBB514CDEB89ACD63BA52
S1134988F03499BC1AC3BCBDC0085A3DFDBC093EED
S113499846CEC2BB8C644FBDADF6D03DACC5273BFB
S11349A8A374293D8CBA563EE127A63E0E14903EC8
S11349B893A9923E7E579C3EC7F4243ED05FE83DBF
S11349C8734B2BBC1EC5B9BDA4341B3C726D883D0A
S11349D8E4A22A3E0762813EE3C68D3D82A8FBBD60
S11349E8DECC88BDC97127BBBD3706B63CF6B3BA61
S11349F8A88FC0BC9E97EABDE9D3EA3D444E0F3E5A
S1134A080323AF3C4C53C4BD598783BDB1F732BEB1
S1134A185B43C9BD55845B3EDCD7313EAED7343DDC
S1134A289276033E0B993B3E0EDB96BC59F965BD65
S1134A386EA216BEDD5FFDBD2BDD9DBD5A820CBB8B
S1134A4820B5093E938D573EE6CCB63D75E91FBDAA
S1134A586D7082BDDD5B91BB00000080368FC3BAE8
S1134A68A4C2D8BC7175E0BD1020C33DF832F13D35
S1134A78CDCB213ED0B58F3DFD109BBD71CB97BEEC
S1134A88844B87BE40DB2ABDB212F33CD009213ED9
S1134A9885CDE03DAAD76D3DB9A981BB8F70BABD5C
S1134AA8E6CCB6BD3D6189BD3D7F5ABB79EB7CBC84
S1134AB83942863DD883593EDA71033E6FB80F3DBB
S1134AC82F6A77BD1DE475BB00000000C98E0DBBBD
S1134AD89295DFBC65E3E1BDC0EC9E3C7C0C063ED0
S1134AE8B1A3013E49A0C13CF3AF65BC22C63BBE9D
S1134AF870998BBEF2422ABECC634D3B1B2DA73D59
S1134B08B9710BBC67981ABD95D6DFBB87DBA13C8E
S1134B1812FA09BE3561BBBD90BC13BEB152A1BD2A
S1134B285F0C653B863A4C3EBCCE263E18CCDF3C37
S1134B38D5EB56BD9C3322BB00000000A52F04BB57
S1134B48EF1DB5BC6953D5BD128340BD72DD043E6B
S1134B5889999D3D601D87BD60EAE7BC0ED895BD67
S1134B68174A26BE09F900BE67EF8CBC95611CBDC7
S1134B7856F05BBCF6D3FFBD9292BEBD904EFDBD10
S1134B8833DEF6BD503710BD5BB094BDE8BC06BD3E
S1134B98CA526B3C6F48C33D9147303D1EFCC43C30
S1134BA87EAC20BD9F7161BB00000000DAC69FBACD
S1134BB8C4ED50BC98FB84BDDC8265BD3BFE8B3CD8
S1134BC880D812BDE0DBF43CB91A193D3CBFA83CBF
S1134BD8F512633D1CECCDBCF4FA13BCBC40C93CD3
S1134BE8DE1E84BD13F126BEDA3C6EBE408854BE78
S1134BF89D2D60BD11C30E3D58569ABBCD1FD3BB26
S1134C083B38583C4F96BA3D23BCDD3D118F443C9C
S1134C18E719FBBCB5C189BB000000003DB9A6B9C2
S1134C28A3E881BC27A38ABDC6176DBD0E2F083D16
S1134C38091A933DBA69B3BCB309B03D815FC33D5A
S1134C487368D13D7C9DD43C8A75EA3DCFBEF23C65
S1134C5804A9B4BD70404BBE984F8EBEF1B70DBECB
S1134C68963EF4BC406A533D7E70BE3C2521113CFF
S1134C786FD535BD4A42823DE6E90C3E4D2EC63A13
S1134C8848C3A9BC76A826BB00000000F8DEDFB93B
S1134C980055DCBBCE8D29BD802D2FBDFCFB0C3D02
S1134CA8730E5E3DB9382A3D6B46063DA8FEA13D0C
S1134CB818B4903C3C30A03D4EED5C3E512EAD3DC9
S1134CC8093533BE7FA28ABEAB7986BEB951E4BD2D
S1134CD8451067BC022D5D3DD95F963DB35F773DB6
S1134CE8439003BC0439883DB94F4E3D55513CBCF3
S1134CF8B28435BC31B1F9BA000000000D6FD6B9E1
S1134D08A2ED98BB369284BC50C8AEBDBB421FBD51
S1134D182750443C8AC8B03DE2CAB93D2CB7D43DBB
S1134D28685DC33D5B963F3E11A7833E3FE1EC3B84
S1134D38AC1B3FBE7FF889BE64787CBEB001F1BD70
S1134D4879EB9CBD27A0893C4149C13DADFA5C3D46
S1134D58D157503D9F04B63C3CF974BC7251ADBC6C
S1134D681D71C8BB0EF53BBA000000007B698AB808
S1134D782E396EBBEA9532BB363DC8BDD1CEC9BD0E
S1134D88E4F821BCC092AB3DAE4A323E62D93C3E07
S1134D9861FB293E486A813EA260663E80D8123D86
S1134DA86E6A40BE49F763BEC8985BBE3F8D0BBEB2
S1134DB81E701DBDFE2AA03D6E52D13DB7418D3DEA
S1134DC8EF3B06BC17D60DBC024AC3BC481A5CBCF0
S1134DD813D6C6BAB0E33FBA0000000030629FB7EA
S1134DE8404E18BB0B0A833B8F38A4BD7D1FCEBD34
S1134DF870EBEE3C6150363E2E56543E59C4303E5C
S1134E08064A1A3EA2F0593E718E4A3E71E52C3D7F
S1134E18FBB00EBEE02F36BEFB5706BE8D44A8BDC0
S1134E28E25C43BD8DB3693CB0E8563C687A09BD81
S1134E382A021CBD90A24EBBDB5287BCDB157ABB91
S1134E48941719B9B5FE16B9000000000000000057
S1134E586616A1BA98A171BB5EA0A4BCA54929BDD8
S1134E6873D6273BF86FDE3DC24C0B3EEBFE713D1B
S1134E78A208A93CB840023E47750A3E1477BC3CD8
S1134E88B9FA91BD01C3D2BD4CA9CBBD341281BDC1
S1134E982C0D7CBDDD9949BD4D3272BDFB9077BDAB
S1134EA8049105BDA0C467BC61A843BC3752B6BA17
S1134EB89C53C9B600000000000000000000000078
S1134EC8F2B47CB91D588EBA2D27A13B4012763C0A
S1134ED82713373C244825BC5EA0243A4E45AABC77
S1134EE80B5D49BDDFFAB03C069F263D2461DF3BDC
S1134EF828D27DBBE9F090BCC43E41BD8C3085BD51
S1134F08451368BDA81D3EBDDC84FBBC9A5D77BC17
S1134F18C3D7D7BB8AE596BB139C7ABB71210FBA5A
S1134F289C5349B600000000000000000000000087
S1134F3800000000696E85BA0C06573B8B4E96BB81
S1134F48F73A29BCB0381CBCA8A70F3C8CA19C3CE0
S1134F58B64A30BBAB949E3CAD6EF53BCE5573BBA5
S1134F688F6CAEBB3FAD22BCB39682BC93356ABC92
S1134F787442E8BBA9320CBCE36BCFBB3C5027BBE3
S1134F888BE1EAB90118CFBA4B22FBB93FC8B2B9D1
S1134F980000000000000000000000000000000005
S1134FA8000000000000000082A87BB7110187BA46
S1134FB82F19C7BA60AFB0B960AF303B35ECF7BB57
S1134FC8A69B443B1A860F3B7270E9BAAFB40CBB7C
S1134FD8074573B96EDBF7BACDACA5BAE65AB4B9CE
S1134FE80D6C95B9FF0582B8D6E594B8BD3706B6F9
S1134FF8BD3786B600000000000000000000000075
S11350080000000000000000000000000000000094
S11350180000000000000000000000000000000084
S1135028000000000000000059FCA6BA32E8843AE7
S1135038EA78CC3A488A483AFD825D3ABD3786B563
S113504820F0C0B79C5349378BE1EA3800000000D0
S11350587024503A0000008000000000BD3786B577
S1135068BD3786B500000000000000000000000005
S11350780000000000000000000000000000000024
S11350880000000000000000000000800000000094
S11350989C5349B6B169253AFD9FC33B151D493C4C
S11350A8BB5F853C5419C63C499FD63C9A27573C5C
S11350B89DBCC83B82A87BB752491DB9A48CB8B71C
S11350C8BD3706B6EE763D3B20F0C0B76AF72BB87D
S11350D8BD3706B600000000000000000000000014
S11350E800000000000000000000000000000000B4
S11350F8000000800000008000000080B5FE16B7A4
S113510824F1723B5B962F3CB22A023DC70E2A3D1E
S1135118C3F5683DC2BFA83DBD8EB83DB8B06E3D6D
S11351286DAAEE3C6764103CA8A70F3A3B6D8DBA94
S1135138D3D9493AA38F79B9A01B9ABB0D190FBCCF
S1135148A568E5BBBDC799BB753FA7B904AD40BA0F
S11351580000000000000000000000000000000043
S1135168931ADAB78BDEA9B81BD5693917B7513842
S113517879909E3CB4002D3D9128B43D685CF83D7F
S11351883220FB3D41800C3E78D4183EE6E9DC3DF4
S1135198E34F543DC0089A3C923EADBB6E88F1BBC8
S11351A82D2721BBEC8758BC2AACD4BC5C0105BDB7
S11351B86FD6E0BCF0F78BBC8526093C6E171A3C09
S11351C80000000000000000000000000000008053
S11351D8ACC527B79E5F94B9E23C9CB903249ABA3C
S11351E85AF3633C32380A3DD844E63DBA2C363E7D
S11351F85628423E03EE593E8596553EA86F093E11
S11352080709513D7F87A2BAB82146BCD5CB6FBCEC
S113521832380ABD4ED111BD9C6F84BD40DE8BBDB2
S1135228AFB236BD41F0783C44C0813D11AA543D2B
S1135238467EFDBA83A5BA3800000000000000804D
S1135248BD3706B6A06EA0B9A585CBBB24464F3C96
S11352580C91133DA374A93DE84F1B3ED4D6283EB8
S11352680C8F3D3E309F1C3EE1091D3EB1A8A83D70
S11352783E07563DDC4904BDC53A55BDD3F970BD5A
S1135288739ED1BDC845F5BDC024F5BDB83AE0BD8F
S11352982383DCBCE10A883DB6F7193E016B953DD2
S11352A80D341FBC18B490390000000082A87BB7E5
S11352B8D1CA3DB9121354BACD72D9BBAB05F63B6A
S11352C8EC2F7B3D51A41B3E78D1473E03600C3E36
S11352D8C39ACA3DA14BB83D726E933DDBC2333DC0
S11352E811AC2ABCD54209BD8E1E3FBDAF22E3BD19
S11352F8B7D54CBEFD2E5CBEFF065DBE292524BE77
S1135308F7760BBD5C1D003E5C55463E2D27C13D1E
S113531871ADF6BBB81FF03900000000D6E514B92A
S1135328800D88BA1FD786BB8EAC7CBC73301BBA81
S113533849F6883DF629373EF7AE813E8B71DE3D4E
S11353486F12833DEB6F893DDC9FEB3D86014B3D3E
S1135358A9682CBD6555C4BDEECF85BD3B3828BEB4
S11353682A386CBE0ABE89BE86E682BE187939BE62
S1135378111A413CDBC32E3ED15D523E21CD183E6D
S1135388EACDA83C94DDCC3A000000003C3080BA59
S1135398A3401FBBE9271CBC1DAF00BD2F1947BC88
S11353A8747ADE3D2AE6503E1590563EF1F39F3D51
S11353B8182613BD6E1544BBF4C0E73DE8BE1CBCFB
S11353C8D6E5F4BDAA654BBEFFB025BEF4F948BEC8
S11353D8C65189BE05BF85BE274D73BE490F33BE6E
S11353E8255D33BD0762D93C5E4B383E48F86E3EB6
S11353F8C34A853D0A31973B00000000FAED6BBAB9
S113540860924ABBFD825DBCD99857BD96404ABD9F
S113541843C6C33DFE616B3E601D273EC51B193D57
S113542858FFE73B94869A3D9FE70F3D11FF70BDF7
S1135438C6FC4CBEA94B86BE4F7954BEEC6967BE08
S1135448267291BEA12D87BE863D7DBEFF5E4ABEF3
S11354580114C3BD60AD5A3CFF241E3E5308843E6C
S1135468529CC33DEEB3CA3B00000000A30312BA2A
S1135478EE409DBBF2CDB6BCC4CC9EBD4EEED7BDAE
S1135488EE96E43D1D01843EB4720F3EAED9CA3C8B
S1135498DCF3FC3CEF3BC63D3290E7BC14232BBE47
S11354A8FA479FBEBB29ADBEE10DA9BEFED6A6BE76
S11354B8D5D09EBE919A86BEE8F75DBE39442CBE0F
S11354C8CCEC93BD1A868F3A3C121F3E8A21593E72
S11354D82D26D63D26529A3C00000000368FC3BACA
S11354E8978F24BCBC0512BD5B61DABD6F9B29BED6
S11354F8AEBCC43DA73E703ED8EF693E4A070B3E9A
S1135508F73B943C2DB0A73D99F01BBE25C9D3BEEB
S1135518795705BFE143E9BEA567D2BE77308ABE95
S1135528D46250BEDF6D2EBE38841ABE554BDABD28
S1135538679D01BE342B9BBD81B0D33D5F62843E21
S1135548234C013EB03B5D3CBD3786B53B5368BB3D
S113555818B410BC786301BD207D03BEED4449BE78
S1135568C91EA13C6398633EEBE3893E4963443E0C
S1135578BA136C3CC2C1DE3BDAFEB5BEF37224BF7B
S11355888D622DBFFF3D08BF02629ABECEC103BE25
S1135598325590BDED6430BD0A12DBBCA43671BD32
S11355A84FADFEBD05DDDEBDD498D03DC9E3813ED7
S11355B859DAE93DAB42833CBD3706B6B5FE96BA27
S11355C88E93C2BBE9D500BD3ECB13BE7D777BBEAF
S11355D8C87CC0BD84D9E43D35270F3E1DAE253EA9
S11355E802A02A3EC6C39B3D6212CEBE5A2D28BFD6
S11355F808E610BF5280C0BEE56327BE304B3B3D72
S1135608BC93CF3D16FA803D76FAC13CA73F7BBDDB
S11356181CD313BE89999DBD71AA053EFF40793EEE
S1135628F3C7343E4703383DBD3786B543E309BA6B
S113563817D60DBCAEF505BDC8071DBE384A96BEC3
S1135648A1650DBE31EB453C09DF1B3E9D83773ECA
S1135658768B903E1781613E535819BEEDD391BEA7
S11356681B9D73BE0CE825BECB8394BDC3D4D63D25
S1135678B933D33D745CCD3D72331C3D315BB2BD4F
S113568847C68ABD422358BB2865F23DD32D833EC5
S113569895D64F3EB01D4C3D000000803AAD5BBA34
S11356A820451DBC087511BD9A9919BED02A9BBE08
S11356B8FD83C8BD65AB4B3D89235F3E302C973EC7
S11356C8529BD83E1D3CBB3EA31F4D3E9752573DAF
S11356D85F2434BC4ED1113D57CFC93D86AB833DC1
S11356E861DEE3BBC05C8BBD2D94CCBD43E2DEBD63
S11356F866C019BD2F17F13C861FDC3D3605823E76
S113570844FB583E1AF93C3D00000000D97A86BA99
S1135718113AE8BB975302BD4AB810BE2EE58CBEB9
S1135728F227AABD0186053EDD5F853EFD2FBF3EFB
S1135738F2CE093FB3F0E53E77A1B93E6CAF353EF2
S11357485DC38C3D50FC583D77F4FF3DC097C23C87
S11357583E5A9CBD4A5D42BE1CEB52BE572416BE3F
S11357681809CDBD56D88CBC8A22C43DC3495A3EBB
S1135778AE0F3B3EF3C6493D00000000DE1E04BAEE
S1135788689599BBDD7ACDBCD7C2ECBDD5EA83BE9A
S11357984609BABDD506373EC2DA783E7347B73EE6
S11357A8C004C63E6C3EBE3E1A6D9D3EBB80173E8D
S11357B8DC9F5B3E8BFDB53E56BC913EDF88AE3D1B
S11357C87A396CBD7FBD42BEFBE781BE9B7360BE68
S11357D88CBC0CBEF1811DBD7769833D5F96363E56
S11357E8DC9E303EBEA55C3D0000000052499DB9D8
S11357F8878645BB4F23ADBCB9A8B6BD79036CBE3B
S113580876A505BE7FA1273EB455893E519F743EB7
S1135818AFD19A3EB1C3A03E7A395C3E1555FF3DDF
S113582800C8A13EE336D23E79E87B3E7E19AC3D02
S1135838BB0AA9BDBA8453BE2847A1BE591882BE63
S113584871C650BE546FEDBD5E81E8BCF4F9E83D05
S11358584819013E1CCF673D00000000FF08C3B88B
S1135868747C34BB39B95FBC2F1987BD17B957BECF
S113587874EF01BE7DEAB83DDFE1363ED87F6D3E68
S11358886FBA8D3E5E9F493EDAA88E3DE3A6A63DDB
S1135898F166AD3E7DAEAE3ECC25753E6B28B53C7B
S11358A827F5C5BDC85E2FBEECF88FBEDC6898BE70
S11358B8A8906BBE179F32BE868E9DBDD7169E3CA0
S11358C8423F533D8126023D00000000514C5EB822
S11358D88BA4DDBA0CAE39BCAF0753BD204638BE25
S11358E87BF5F1BDDB16853D77670D3ECB65233E21
S11358F8863A843EF10F5B3E3FC4C63D65FBB03D2E
S1135908145F4D3EB4CA9C3E38DB3C3E6152FC3CBD
S11359180A4CC7BD20B674BE18EEA4BEA5A093BE9B
S1135928E08377BE7AC749BE83A4CFBD8CF723BD75
S113593831B5A5BB8E59F63B00000000A48C38B7DE
S1135948F2B13BBAE0D6DDBB7F6DFDBCC553EFBDFC
S1135958942E9DBDAA44593CC05F0C3DD6C9193E3E
S113596847E3803E7EFC253EC712163D3C33C13CCE
S11359783D29133E3B6F833E63B41E3E69C6A2BCF9
S11359882E1D23BEA6B48EBE079693BE8B8A78BE00
S1135998A62651BEFD4D28BE24F1D2BD338C3BBD95
S11359A80B7DB0BB2288733A000000009C5349B6B3
S11359B8C991CEB9C8CE5BBB1C25AFBC98FBA4BDAE
S11359C8417EB6BDCDCC4C3C97E3553DE3AA923D10
S11359D88997C73D9C18923DB16C66BB8DED353CEB
S11359E865501D3EFFB3563E29CB503D0FD429BD0B
S11359F8AF081EBE2DB162BE2EC75BBECC0734BE37
S1135A08410FF5BD990EBDBDF3AB99BD7BA4C1BCD7
S1135A1822E2E63B0BB3D03B00000000BD3786B65C
S1135A28139939B994DDCCBA09F920BCCD9541BD97
S1135A38B4E6A7BD26A90CBDB9A901BC9DD542BD34
S1135A48CD5894BD52491DBD16FBCBBC69E3883CB7
S1135A58FA60D93D7D93A63DF5F667BC795A3EBDFB
S1135A68558601BE663006BE0BEFD2BDCC0BB0BD69
S1135A7841B882BDA3E580BDF8337CBD9B0299BCC7
S1135A88C6FC5CBA6C231E3B00000000000000004A
S1135A98BD3AC7B82E5654BA50FD83BB41B797BC1C
S1135AA81EC539BD3EB14EBD01DA96BD2F698CBD08
S1135AB86EBE91BDEE254DBDC45DBDBC9BCAA23C66
S1135AC8AF79D53C01DB413CF0A485BCFA7A3EBCF5
S1135AD8E92C93BD077A28BD1212E9BC7D92BBBCA0
S1135AE8529CA3BCCFC0C8BC3E3CCBBCBF0CC6BAFE
S1135AF8BD3706B7000000000000000000000000E9
S1135B08ACC5A7B6ACC8E8B8556A76BA8995D1BB0E
S1135B18A0E2B8BC268D11BD08AE32BD117008BD17
S1135B28E527D5BC22A89ABC3351843B3F36493C6F
S1135B38643DB53B8E3E66BC0BED9CBC94BD25BB59
S1135B481C9A32BCAE0E00BCE36BCFBBE50AEFBBBC
S1135B587976F9BBF2EB07BC27F826BCD5E855B92A
S1135B682829B037000000000000000000000000F1
S1135B780000000000000080CDAC25B951862ABB86
S1135B88F433F5BB2E8CF4BBAE812DBCA46C91BB55
S1135B98CC634DBB02F1BABB2574973BEE93233912
S1135BA84B1FBABA8BFB0FBB8099EFBAA4FCA43B7A
S1135BB81E1B813B3337DFBABAA294BA89D25EBAC4
S1135BC882A8FBB8D6E594B88BE1EAB69C53C9B66B
S1135BD800000000000000000000000000000000B9
S1135BE80000000000000000ACC5A7B60F7EE2B8B4
S1135BF88196AEB93AADDBB929ECA2BA3FE1EC3BE8
S1135C08D1CABD3A61C1FDB8E71D273B3FC832BAC6
S1135C18B5FE16B79C5349B99C53C9B8139C7AB9B5
S1135C28B5FE96B700000080BD3786B50000008039
S1135C3800000080000000000000000000000000D8
S1135C480000000000000000000000000000000048
S1135C580000000000000000000000000000000038
S1135C6800000000000000009C5349B6BD3786B60A
S1135C789C53C9B6BD3786B500000080000000807B
S1135C889C5088B82829B0B70000008000000000A4
S1135C98BD3706B700000080000000000000008047
S1135CA80000008000000000000000000000000068
S1135CB800000000000000000000000000000000D8
S1135CC80000000000000000000000800000000048
